{
  "contractName": "ERC20Token",
  "abi": [
    {
      "inputs": [
        {
          "internalType": "uint256",
          "name": "_initialAmount",
          "type": "uint256"
        },
        {
          "internalType": "string",
          "name": "_tokenName",
          "type": "string"
        },
        {
          "internalType": "uint8",
          "name": "_decimalUnits",
          "type": "uint8"
        },
        {
          "internalType": "string",
          "name": "_tokenSymbol",
          "type": "string"
        }
      ],
      "stateMutability": "nonpayable",
      "type": "constructor"
    },
    {
      "anonymous": false,
      "inputs": [
        {
          "indexed": true,
          "internalType": "address",
          "name": "tokenOwner",
          "type": "address"
        },
        {
          "indexed": true,
          "internalType": "address",
          "name": "spender",
          "type": "address"
        },
        {
          "indexed": false,
          "internalType": "uint256",
          "name": "tokens",
          "type": "uint256"
        }
      ],
      "name": "Approval",
      "type": "event"
    },
    {
      "anonymous": false,
      "inputs": [
        {
          "indexed": true,
          "internalType": "address",
          "name": "from",
          "type": "address"
        },
        {
          "indexed": true,
          "internalType": "address",
          "name": "to",
          "type": "address"
        },
        {
          "indexed": false,
          "internalType": "uint256",
          "name": "tokens",
          "type": "uint256"
        }
      ],
      "name": "Transfer",
      "type": "event"
    },
    {
      "inputs": [
        {
          "internalType": "address",
          "name": "",
          "type": "address"
        },
        {
          "internalType": "address",
          "name": "",
          "type": "address"
        }
      ],
      "name": "allowed",
      "outputs": [
        {
          "internalType": "uint256",
          "name": "",
          "type": "uint256"
        }
      ],
      "stateMutability": "view",
      "type": "function"
    },
    {
      "inputs": [
        {
          "internalType": "address",
          "name": "",
          "type": "address"
        }
      ],
      "name": "balances",
      "outputs": [
        {
          "internalType": "uint256",
          "name": "",
          "type": "uint256"
        }
      ],
      "stateMutability": "view",
      "type": "function"
    },
    {
      "inputs": [],
      "name": "decimals",
      "outputs": [
        {
          "internalType": "uint8",
          "name": "",
          "type": "uint8"
        }
      ],
      "stateMutability": "view",
      "type": "function"
    },
    {
      "inputs": [],
      "name": "name",
      "outputs": [
        {
          "internalType": "string",
          "name": "",
          "type": "string"
        }
      ],
      "stateMutability": "view",
      "type": "function"
    },
    {
      "inputs": [],
      "name": "symbol",
      "outputs": [
        {
          "internalType": "string",
          "name": "",
          "type": "string"
        }
      ],
      "stateMutability": "view",
      "type": "function"
    },
    {
      "inputs": [],
      "name": "totSupply",
      "outputs": [
        {
          "internalType": "uint256",
          "name": "",
          "type": "uint256"
        }
      ],
      "stateMutability": "view",
      "type": "function"
    },
    {
      "inputs": [
        {
          "internalType": "address",
          "name": "_to",
          "type": "address"
        },
        {
          "internalType": "uint256",
          "name": "_value",
          "type": "uint256"
        }
      ],
      "name": "transfer",
      "outputs": [
        {
          "internalType": "bool",
          "name": "success",
          "type": "bool"
        }
      ],
      "stateMutability": "nonpayable",
      "type": "function"
    },
    {
      "inputs": [
        {
          "internalType": "address",
          "name": "_from",
          "type": "address"
        },
        {
          "internalType": "address",
          "name": "_to",
          "type": "address"
        },
        {
          "internalType": "uint256",
          "name": "_value",
          "type": "uint256"
        }
      ],
      "name": "transferFrom",
      "outputs": [
        {
          "internalType": "bool",
          "name": "success",
          "type": "bool"
        }
      ],
      "stateMutability": "nonpayable",
      "type": "function"
    },
    {
      "inputs": [
        {
          "internalType": "address",
          "name": "_owner",
          "type": "address"
        }
      ],
      "name": "balanceOf",
      "outputs": [
        {
          "internalType": "uint256",
          "name": "balance",
          "type": "uint256"
        }
      ],
      "stateMutability": "view",
      "type": "function"
    },
    {
      "inputs": [
        {
          "internalType": "address",
          "name": "_spender",
          "type": "address"
        },
        {
          "internalType": "uint256",
          "name": "_value",
          "type": "uint256"
        }
      ],
      "name": "approve",
      "outputs": [
        {
          "internalType": "bool",
          "name": "success",
          "type": "bool"
        }
      ],
      "stateMutability": "nonpayable",
      "type": "function"
    },
    {
      "inputs": [
        {
          "internalType": "address",
          "name": "_owner",
          "type": "address"
        },
        {
          "internalType": "address",
          "name": "_spender",
          "type": "address"
        }
      ],
      "name": "allowance",
      "outputs": [
        {
          "internalType": "uint256",
          "name": "remaining",
          "type": "uint256"
        }
      ],
      "stateMutability": "view",
      "type": "function"
    },
    {
      "inputs": [],
      "name": "totalSupply",
      "outputs": [
        {
          "internalType": "uint256",
          "name": "totSupp",
          "type": "uint256"
        }
      ],
      "stateMutability": "view",
      "type": "function"
    }
  ],
  "bytecode": "0x60806040523480156200001157600080fd5b50604051620013a8380380620013a883398181016040528101906200003791906200020e565b83600160003373ffffffffffffffffffffffffffffffffffffffff1673ffffffffffffffffffffffffffffffffffffffff168152602001908152602001600020819055508360008190555082600390805190602001906200009a929190620000be565b508060049080519060200190620000b3929190620000be565b505050505062000428565b828054620000cc9062000360565b90600052602060002090601f016020900481019282620000f057600085556200013c565b82601f106200010b57805160ff19168380011785556200013c565b828001600101855582156200013c579182015b828111156200013b5782518255916020019190600101906200011e565b5b5090506200014b91906200014f565b5090565b5b808211156200016a57600081600090555060010162000150565b5090565b6000620001856200017f84620002e0565b620002ac565b9050828152602081018484840111156200019e57600080fd5b620001ab8482856200032a565b509392505050565b600082601f830112620001c557600080fd5b8151620001d78482602086016200016e565b91505092915050565b600081519050620001f181620003f4565b92915050565b60008151905062000208816200040e565b92915050565b600080600080608085870312156200022557600080fd5b60006200023587828801620001e0565b945050602085015167ffffffffffffffff8111156200025357600080fd5b6200026187828801620001b3565b93505060406200027487828801620001f7565b925050606085015167ffffffffffffffff8111156200029257600080fd5b620002a087828801620001b3565b91505092959194509250565b6000604051905081810181811067ffffffffffffffff82111715620002d657620002d5620003c5565b5b8060405250919050565b600067ffffffffffffffff821115620002fe57620002fd620003c5565b5b601f19601f8301169050602081019050919050565b6000819050919050565b600060ff82169050919050565b60005b838110156200034a5780820151818401526020810190506200032d565b838111156200035a576000848401525b50505050565b600060028204905060018216806200037957607f821691505b6020821081141562000390576200038f62000396565b5b50919050565b7f4e487b7100000000000000000000000000000000000000000000000000000000600052602260045260246000fd5b7f4e487b7100000000000000000000000000000000000000000000000000000000600052604160045260246000fd5b620003ff8162000313565b81146200040b57600080fd5b50565b62000419816200031d565b81146200042557600080fd5b50565b610f7080620004386000396000f3fe608060405234801561001057600080fd5b50600436106100b45760003560e01c80635c658165116100715780635c658165146101a357806370a08231146101d357806381fbf0a51461020357806395d89b4114610221578063a9059cbb1461023f578063dd62ed3e1461026f576100b4565b806306fdde03146100b9578063095ea7b3146100d757806318160ddd1461010757806323b872dd1461012557806327e235e314610155578063313ce56714610185575b600080fd5b6100c161029f565b6040516100ce9190610ca5565b60405180910390f35b6100f160048036038101906100ec9190610b42565b61032d565b6040516100fe9190610c8a565b60405180910390f35b61010f61041f565b60405161011c9190610d07565b60405180910390f35b61013f600480360381019061013a9190610af3565b610428565b60405161014c9190610c8a565b60405180910390f35b61016f600480360381019061016a9190610a8e565b610711565b60405161017c9190610d07565b60405180910390f35b61018d610729565b60405161019a9190610d22565b60405180910390f35b6101bd60048036038101906101b89190610ab7565b61073c565b6040516101ca9190610d07565b60405180910390f35b6101ed60048036038101906101e89190610a8e565b610761565b6040516101fa9190610d07565b60405180910390f35b61020b6107aa565b6040516102189190610d07565b60405180910390f35b6102296107b0565b6040516102369190610ca5565b60405180910390f35b61025960048036038101906102549190610b42565b61083e565b6040516102669190610c8a565b60405180910390f35b61028960048036038101906102849190610ab7565b6109dd565b6040516102969190610d07565b60405180910390f35b600380546102ac90610e6b565b80601f01602080910402602001604051908101604052809291908181526020018280546102d890610e6b565b80156103255780601f106102fa57610100808354040283529160200191610325565b820191906000526020600020905b81548152906001019060200180831161030857829003601f168201915b505050505081565b600081600260003373ffffffffffffffffffffffffffffffffffffffff1673ffffffffffffffffffffffffffffffffffffffff16815260200190815260200160002060008573ffffffffffffffffffffffffffffffffffffffff1673ffffffffffffffffffffffffffffffffffffffff168152602001908152602001600020819055508273ffffffffffffffffffffffffffffffffffffffff163373ffffffffffffffffffffffffffffffffffffffff167f8c5be1e5ebec7d5bd14f71427d1e84f3dd0314c0f7b2291e5b200ac8c7c3b9258460405161040d9190610d07565b60405180910390a36001905092915050565b60008054905090565b600080600260008673ffffffffffffffffffffffffffffffffffffffff1673ffffffffffffffffffffffffffffffffffffffff16815260200190815260200160002060003373ffffffffffffffffffffffffffffffffffffffff1673ffffffffffffffffffffffffffffffffffffffff16815260200190815260200160002054905082600160008773ffffffffffffffffffffffffffffffffffffffff1673ffffffffffffffffffffffffffffffffffffffff16815260200190815260200160002054101580156104f95750828110155b610538576040517f08c379a000000000000000000000000000000000000000000000000000000000815260040161052f90610ce7565b60405180910390fd5b82600160008673ffffffffffffffffffffffffffffffffffffffff1673ffffffffffffffffffffffffffffffffffffffff16815260200190815260200160002060008282546105879190610d59565b9250508190555082600160008773ffffffffffffffffffffffffffffffffffffffff1673ffffffffffffffffffffffffffffffffffffffff16815260200190815260200160002060008282546105dd9190610daf565b925050819055507fffffffffffffffffffffffffffffffffffffffffffffffffffffffffffffffff8110156106a05782600260008773ffffffffffffffffffffffffffffffffffffffff1673ffffffffffffffffffffffffffffffffffffffff16815260200190815260200160002060003373ffffffffffffffffffffffffffffffffffffffff1673ffffffffffffffffffffffffffffffffffffffff16815260200190815260200160002060008282546106989190610daf565b925050819055505b8373ffffffffffffffffffffffffffffffffffffffff168573ffffffffffffffffffffffffffffffffffffffff167fddf252ad1be2c89b69c2b068fc378daa952ba7f163c4a11628f55a4df523b3ef856040516106fd9190610d07565b60405180910390a360019150509392505050565b60016020528060005260406000206000915090505481565b600560009054906101000a900460ff1681565b6002602052816000526040600020602052806000526040600020600091509150505481565b6000600160008373ffffffffffffffffffffffffffffffffffffffff1673ffffffffffffffffffffffffffffffffffffffff168152602001908152602001600020549050919050565b60005481565b600480546107bd90610e6b565b80601f01602080910402602001604051908101604052809291908181526020018280546107e990610e6b565b80156108365780601f1061080b57610100808354040283529160200191610836565b820191906000526020600020905b81548152906001019060200180831161081957829003601f168201915b505050505081565b600081600160003373ffffffffffffffffffffffffffffffffffffffff1673ffffffffffffffffffffffffffffffffffffffff1681526020019081526020016000205410156108c2576040517f08c379a00000000000000000000000000000000000000000000000000000000081526004016108b990610cc7565b60405180910390fd5b81600160003373ffffffffffffffffffffffffffffffffffffffff1673ffffffffffffffffffffffffffffffffffffffff16815260200190815260200160002060008282546109119190610daf565b9250508190555081600160008573ffffffffffffffffffffffffffffffffffffffff1673ffffffffffffffffffffffffffffffffffffffff16815260200190815260200160002060008282546109679190610d59565b925050819055508273ffffffffffffffffffffffffffffffffffffffff163373ffffffffffffffffffffffffffffffffffffffff167fddf252ad1be2c89b69c2b068fc378daa952ba7f163c4a11628f55a4df523b3ef846040516109cb9190610d07565b60405180910390a36001905092915050565b6000600260008473ffffffffffffffffffffffffffffffffffffffff1673ffffffffffffffffffffffffffffffffffffffff16815260200190815260200160002060008373ffffffffffffffffffffffffffffffffffffffff1673ffffffffffffffffffffffffffffffffffffffff16815260200190815260200160002054905092915050565b600081359050610a7381610f0c565b92915050565b600081359050610a8881610f23565b92915050565b600060208284031215610aa057600080fd5b6000610aae84828501610a64565b91505092915050565b60008060408385031215610aca57600080fd5b6000610ad885828601610a64565b9250506020610ae985828601610a64565b9150509250929050565b600080600060608486031215610b0857600080fd5b6000610b1686828701610a64565b9350506020610b2786828701610a64565b9250506040610b3886828701610a79565b9150509250925092565b60008060408385031215610b5557600080fd5b6000610b6385828601610a64565b9250506020610b7485828601610a79565b9150509250929050565b610b8781610df5565b82525050565b6000610b9882610d3d565b610ba28185610d48565b9350610bb2818560208601610e38565b610bbb81610efb565b840191505092915050565b6000610bd3601283610d48565b91507f496e73756666696369656e742066756e647300000000000000000000000000006000830152602082019050919050565b6000610c13602f83610d48565b91507f496e73756666696369656e7420616c6c6f7765642066756e647320666f72207460008301527f72616e7366657220736f757263652e00000000000000000000000000000000006020830152604082019050919050565b610c7581610e21565b82525050565b610c8481610e2b565b82525050565b6000602082019050610c9f6000830184610b7e565b92915050565b60006020820190508181036000830152610cbf8184610b8d565b905092915050565b60006020820190508181036000830152610ce081610bc6565b9050919050565b60006020820190508181036000830152610d0081610c06565b9050919050565b6000602082019050610d1c6000830184610c6c565b92915050565b6000602082019050610d376000830184610c7b565b92915050565b600081519050919050565b600082825260208201905092915050565b6000610d6482610e21565b9150610d6f83610e21565b9250827fffffffffffffffffffffffffffffffffffffffffffffffffffffffffffffffff03821115610da457610da3610e9d565b5b828201905092915050565b6000610dba82610e21565b9150610dc583610e21565b925082821015610dd857610dd7610e9d565b5b828203905092915050565b6000610dee82610e01565b9050919050565b60008115159050919050565b600073ffffffffffffffffffffffffffffffffffffffff82169050919050565b6000819050919050565b600060ff82169050919050565b60005b83811015610e56578082015181840152602081019050610e3b565b83811115610e65576000848401525b50505050565b60006002820490506001821680610e8357607f821691505b60208210811415610e9757610e96610ecc565b5b50919050565b7f4e487b7100000000000000000000000000000000000000000000000000000000600052601160045260246000fd5b7f4e487b7100000000000000000000000000000000000000000000000000000000600052602260045260246000fd5b6000601f19601f8301169050919050565b610f1581610de3565b8114610f2057600080fd5b50565b610f2c81610e21565b8114610f3757600080fd5b5056fea2646970667358221220d4800b8f285a9bdd4f8fc70032ad36349e1c523918253485b40d389a2d544bea64736f6c63430008000033",
  "immutableReferences": {},
  "source": "//Implement EIP20 TOKEN FROM GITHUB\r\n// SPDX-License-Identifier: GPL-3.0\r\n\r\npragma solidity ^0.8.0;\r\nimport \"./erc20Interface.sol\";\r\n\r\n\r\ncontract ERC20Token is ERC20Interface{\r\n\r\n    uint256 constant private MAX_UINT256 = 2**256-1;\r\n    mapping(address => uint256)public balances;\r\n    mapping(address => mapping(address=>uint)) public allowed; \r\n\r\n    string public name;                     //Descriptive name \r\n    string public symbol;                  //Short identifier for token\r\n    // uint256 override public totSupply;\r\n    uint8 public decimals;                // Decimal to add after point\r\n\r\n\r\n    // Create the new token ans assign initial values , including initial amount\r\n\r\n    constructor(\r\n\r\n        uint256 _initialAmount,\r\n        string memory _tokenName,\r\n        uint8 _decimalUnits,\r\n        string memory _tokenSymbol\r\n\r\n    ) public {\r\n        balances[msg.sender] = _initialAmount;\r\n        totSupply = _initialAmount;\r\n        name = _tokenName ;\r\n        symbol = _tokenSymbol;\r\n    } \r\n    // Transfer tokens from msg.sender to a specified address\r\n\r\n    function transfer(address _to, uint256 _value) override public returns (bool success){\r\n\r\n        require(balances[msg.sender] >= _value,\"Insufficient funds\");\r\n        balances[msg.sender] -= _value;\r\n        balances[_to] += _value;\r\n        emit Transfer(msg.sender, _to,_value);\r\n        return true;\r\n    }\r\n    function transferFrom(address _from, address _to, uint256 _value) override public returns (bool success) {\r\n        uint256 allowance = allowed[_from][msg.sender];\r\n        require(balances[_from] >= _value && allowance >= _value,\"Insufficient allowed funds for transfer source.\");\r\n        balances[_to] += _value;\r\n        balances[_from] -= _value;\r\n        if (allowance < MAX_UINT256) {\r\n            allowed[_from][msg.sender] -= _value;\r\n        }\r\n        emit Transfer(_from, _to, _value);\r\n        return true;\r\n    }\r\n\r\n    // Return the current balance (in tokens) of a specified address\r\n    function balanceOf(address _owner) override public view returns (uint256 balance) {\r\n        return balances[_owner];\r\n    }\r\n\r\n    // Set\r\n    function approve(address _spender, uint256 _value) override public returns (bool success) {\r\n        allowed[msg.sender][_spender] = _value;\r\n        emit Approval(msg.sender, _spender, _value);\r\n        return true;\r\n    }\r\n\r\n    // Return the\r\n    function allowance(address _owner, address _spender) override public view returns (uint256 remaining) {\r\n        return allowed[_owner][_spender];\r\n    }\r\n\r\n    // Return the total number of tokens in circulation\r\n    function totalSupply() override public view returns (uint256 totSupp) {\r\n        return totSupply;\r\n    }\r\n\r\n\r\n\r\n\r\n\r\n\r\n\r\n\r\n\r\n} ",
  "sourcePath": "C:\\Users\\risha\\Desktop\\BlockChain\\SupplyChain\\contracts\\erc20Token.sol",
  "compiler": {
    "name": "solc",
    "version": "0.8.0+commit.c7dfd78e.Emscripten.clang"
  },
  "schemaVersion": "3.4.4",
  "updatedAt": "2022-01-09T01:38:01.114Z",
  "devdoc": {
    "kind": "dev",
    "methods": {},
    "version": 1
  },
  "userdoc": {
    "kind": "user",
    "methods": {},
    "version": 1
  }
}